:100000000C9446000C945D000C945D000C945D0013
:100010000C945D000C945D000C945D000C945D00EC
:100020000C945D000C945D000C945D000C945D00DC
:100030000C945D000C945D000C945D000C945D00CC
:100040000C945D000C945D000C945D000C945D00BC
:100050000C945D000C945D000C945D000C945D00AC
:100060000C945D000C945D000C945D000C945D009C
:100070000C945D000C945D000C945D000C945D008C
:100080000C945D000C945D000C945D0011241FBE67
:10009000CFEFD0E4DEBFCDBF11E0A0E0B1E0E8EFEC
:1000A000F2E000E00BBF02C007900D92AC30B10748
:1000B000D9F70E945C010C947A010C940000CF9354
:1000C000DF93CDB7DEB781E00E9486000000DF91AC
:1000D000CF910895CF93DF93CDB7DEB784E690E05C
:1000E0000E942B0188E30E94860086E00E94860021
:1000F0008FE00E94860081E00E9486008AE090E006
:100100000E942B010000DF91CF910895CF93DF93E0
:100110000F92CDB7DEB789838BE290E0FC0120819E
:100120008BE290E02F7BFC01208388E290E0298124
:10013000FC0120838BE290E0FC0120818BE290E0C7
:100140002068FC01208300008BE290E0FC0120810C
:100150008BE290E02F77FC01208382E090E00E9408
:100160002B0100000F90DF91CF910895CF93DF9383
:100170000F92CDB7DEB789838BE290E0FC0120813E
:100180008BE290E02064FC01208388E290E02981EA
:10019000FC0120838BE290E0FC0120818BE290E067
:1001A0002068FC01208300008BE290E0FC012081AC
:1001B0008BE290E02F77FC01208381E090E00E94A9
:1001C0002B0100000F90DF91CF910895CF93DF9323
:1001D00000D000D0CDB7DEB78A837C836B830E94CA
:1001E0005F008A81898311C0898191E0980F99838A
:1001F0000E9414018B819C819C012F5F3F4F3C83A7
:100200002B83FC0180810E94B6008B819C81FC01C4
:100210008081882349F7000000000F900F900F9015
:100220000F90DF91CF910895CF93DF930F92CDB7C9
:10023000DEB789838981813128F4898181580E94C0
:10024000860004C0898181550E94860000000F90BD
:10025000DF91CF910895CF93DF9300D000D000D0ED
:10026000CDB7DEB79E838D831A82198213C01C829C
:100270001B8206C000008B819C8101969C838B832E
:100280008B819C8187309340ACF389819A81019660
:100290009A83898329813A818D819E812817390724
:1002A00034F30000000026960FB6F894DEBF0FBEB0
:1002B000CDBFDF91CF910895CF93DF93CDB7DEB758
:1002C00087E290E02FEFFC01208388E290E0FC01C0
:1002D00010828AE290E02FEFFC0120838BE290E015
:1002E000FC0110820E946A0060E071E081E00E94DF
:0802F000E600FFCFF894FFCFF8
:0C02F80048656C6C6F20576F726C6400DE
:00000001FF
